{
  "_format": "hh-sol-artifact-1",
  "contractName": "ProduceTracker",
  "sourceName": "contracts/ProduceTracker.sol",
  "abi": [
    {
      "anonymous": false,
      "inputs": [
        {
          "indexed": true,
          "internalType": "address",
          "name": "previousOwner",
          "type": "address"
        },
        {
          "indexed": true,
          "internalType": "address",
          "name": "newOwner",
          "type": "address"
        }
      ],
      "name": "OwnershipTransferred",
      "type": "event"
    },
    {
      "anonymous": false,
      "inputs": [
        {
          "indexed": true,
          "internalType": "uint256",
          "name": "id",
          "type": "uint256"
        },
        {
          "indexed": false,
          "internalType": "string",
          "name": "name",
          "type": "string"
        },
        {
          "indexed": false,
          "internalType": "string",
          "name": "origin",
          "type": "string"
        },
        {
          "indexed": false,
          "internalType": "uint256",
          "name": "price",
          "type": "uint256"
        },
        {
          "indexed": true,
          "internalType": "address",
          "name": "farmer",
          "type": "address"
        }
      ],
      "name": "ProduceAdded",
      "type": "event"
    },
    {
      "anonymous": false,
      "inputs": [
        {
          "indexed": true,
          "internalType": "uint256",
          "name": "id",
          "type": "uint256"
        },
        {
          "indexed": false,
          "internalType": "enum ProduceTracker.Status",
          "name": "status",
          "type": "uint8"
        },
        {
          "indexed": false,
          "internalType": "string",
          "name": "action",
          "type": "string"
        },
        {
          "indexed": false,
          "internalType": "string",
          "name": "location",
          "type": "string"
        },
        {
          "indexed": true,
          "internalType": "address",
          "name": "actor",
          "type": "address"
        }
      ],
      "name": "ProduceUpdated",
      "type": "event"
    },
    {
      "inputs": [
        {
          "internalType": "string",
          "name": "name",
          "type": "string"
        },
        {
          "internalType": "string",
          "name": "origin",
          "type": "string"
        },
        {
          "internalType": "uint256",
          "name": "price",
          "type": "uint256"
        },
        {
          "internalType": "string",
          "name": "location",
          "type": "string"
        }
      ],
      "name": "addProduce",
      "outputs": [],
      "stateMutability": "nonpayable",
      "type": "function"
    },
    {
      "inputs": [
        {
          "internalType": "uint256",
          "name": "id",
          "type": "uint256"
        },
        {
          "internalType": "enum ProduceTracker.Status",
          "name": "status",
          "type": "uint8"
        },
        {
          "internalType": "string",
          "name": "action",
          "type": "string"
        },
        {
          "internalType": "string",
          "name": "location",
          "type": "string"
        }
      ],
      "name": "addUpdate",
      "outputs": [],
      "stateMutability": "nonpayable",
      "type": "function"
    },
    {
      "inputs": [
        {
          "internalType": "uint256",
          "name": "id",
          "type": "uint256"
        }
      ],
      "name": "getHistory",
      "outputs": [
        {
          "components": [
            {
              "internalType": "enum ProduceTracker.Status",
              "name": "status",
              "type": "uint8"
            },
            {
              "internalType": "string",
              "name": "action",
              "type": "string"
            },
            {
              "internalType": "string",
              "name": "location",
              "type": "string"
            },
            {
              "internalType": "address",
              "name": "actor",
              "type": "address"
            },
            {
              "internalType": "uint256",
              "name": "timestamp",
              "type": "uint256"
            }
          ],
          "internalType": "struct ProduceTracker.Update[]",
          "name": "",
          "type": "tuple[]"
        }
      ],
      "stateMutability": "view",
      "type": "function"
    },
    {
      "inputs": [
        {
          "internalType": "uint256",
          "name": "id",
          "type": "uint256"
        }
      ],
      "name": "getProduce",
      "outputs": [
        {
          "internalType": "uint256",
          "name": "",
          "type": "uint256"
        },
        {
          "internalType": "string",
          "name": "",
          "type": "string"
        },
        {
          "internalType": "string",
          "name": "",
          "type": "string"
        },
        {
          "internalType": "uint256",
          "name": "",
          "type": "uint256"
        },
        {
          "internalType": "enum ProduceTracker.Status",
          "name": "",
          "type": "uint8"
        }
      ],
      "stateMutability": "view",
      "type": "function"
    },
    {
      "inputs": [],
      "name": "owner",
      "outputs": [
        {
          "internalType": "address",
          "name": "",
          "type": "address"
        }
      ],
      "stateMutability": "view",
      "type": "function"
    },
    {
      "inputs": [],
      "name": "renounceOwnership",
      "outputs": [],
      "stateMutability": "nonpayable",
      "type": "function"
    },
    {
      "inputs": [],
      "name": "totalProduces",
      "outputs": [
        {
          "internalType": "uint256",
          "name": "",
          "type": "uint256"
        }
      ],
      "stateMutability": "view",
      "type": "function"
    },
    {
      "inputs": [
        {
          "internalType": "address",
          "name": "newOwner",
          "type": "address"
        }
      ],
      "name": "transferOwnership",
      "outputs": [],
      "stateMutability": "nonpayable",
      "type": "function"
    }
  ],
  "bytecode": "0x608060405234801561001057600080fd5b5061002d61002261003260201b60201c565b61003a60201b60201c565b6100fe565b600033905090565b60008060009054906101000a900473ffffffffffffffffffffffffffffffffffffffff169050816000806101000a81548173ffffffffffffffffffffffffffffffffffffffff021916908373ffffffffffffffffffffffffffffffffffffffff1602179055508173ffffffffffffffffffffffffffffffffffffffff168173ffffffffffffffffffffffffffffffffffffffff167f8be0079c531659141344cd1fd0a4f28419497f9722a3daafe3b4186f6b6457e060405160405180910390a35050565b6118e98061010d6000396000f3fe608060405234801561001057600080fd5b50600436106100885760003560e01c80638da5cb5b1161005b5780638da5cb5b14610105578063934d24a414610123578063c8691b2a1461013f578063f2fde38b1461016f57610088565b80630dbf6c661461008d578063179c5764146100ab578063389b8066146100c7578063715018a6146100fb575b600080fd5b61009561018b565b6040516100a29190610cb0565b60405180910390f35b6100c560048036038101906100c09190610e51565b61019c565b005b6100e160048036038101906100dc9190610f0c565b6103f0565b6040516100f295949392919061102f565b60405180910390f35b6101036105b7565b005b61010d6105cb565b60405161011a91906110d1565b60405180910390f35b61013d60048036038101906101389190611111565b6105f4565b005b61015960048036038101906101549190610f0c565b61081a565b6040516101669190611366565b60405180910390f35b610189600480360381019061018491906113b4565b610aa6565b005b60006101976001610b29565b905090565b6101a66001610b37565b60006101b26001610b29565b905060006040518060a00160405280600060038111156101d5576101d4610fb8565b5b81526020016040518060400160405280601281526020017f52656769737465726564206174204661726d000000000000000000000000000081525081526020018481526020013373ffffffffffffffffffffffffffffffffffffffff16815260200142815250905060006002600084815260200190815260200160002090508281600001819055508681600101908161026e91906115ed565b508581600201908161028091906115ed565b5084816003018190555060008160040160006101000a81548160ff021916908360038111156102b2576102b1610fb8565b5b02179055508060050182908060018154018082558091505060019003906000526020600020906005020160009091909190915060008201518160000160006101000a81548160ff021916908360038111156103105761030f610fb8565b5b0217905550602082015181600101908161032a91906115ed565b50604082015181600201908161034091906115ed565b5060608201518160030160006101000a81548173ffffffffffffffffffffffffffffffffffffffff021916908373ffffffffffffffffffffffffffffffffffffffff1602179055506080820151816004015550503373ffffffffffffffffffffffffffffffffffffffff16837f4971bd84875a28b3e85521f12036f5f6b5712f05e8879229417b32ecd2dfbc158989896040516103df939291906116bf565b60405180910390a350505050505050565b6000606080600080600086118015610411575061040d6001610b29565b8611155b610450576040517f08c379a000000000000000000000000000000000000000000000000000000000815260040161044790611750565b60405180910390fd5b60006002600088815260200190815260200160002090508060000154816001018260020183600301548460040160009054906101000a900460ff1683805461049790611410565b80601f01602080910402602001604051908101604052809291908181526020018280546104c390611410565b80156105105780601f106104e557610100808354040283529160200191610510565b820191906000526020600020905b8154815290600101906020018083116104f357829003601f168201915b5050505050935082805461052390611410565b80601f016020809104026020016040519081016040528092919081815260200182805461054f90611410565b801561059c5780601f106105715761010080835404028352916020019161059c565b820191906000526020600020905b81548152906001019060200180831161057f57829003601f168201915b50505050509250955095509550955095505091939590929450565b6105bf610b4d565b6105c96000610bcb565b565b60008060009054906101000a900473ffffffffffffffffffffffffffffffffffffffff16905090565b60008411801561060d57506106096001610b29565b8411155b61064c576040517f08c379a000000000000000000000000000000000000000000000000000000000815260040161064390611750565b60405180910390fd5b6000600260008681526020019081526020016000209050838160040160006101000a81548160ff0219169083600381111561068a57610689610fb8565b5b021790555060006040518060a001604052808660038111156106af576106ae610fb8565b5b81526020018581526020018481526020013373ffffffffffffffffffffffffffffffffffffffff1681526020014281525090508160050181908060018154018082558091505060019003906000526020600020906005020160009091909190915060008201518160000160006101000a81548160ff0219169083600381111561073b5761073a610fb8565b5b0217905550602082015181600101908161075591906115ed565b50604082015181600201908161076b91906115ed565b5060608201518160030160006101000a81548173ffffffffffffffffffffffffffffffffffffffff021916908373ffffffffffffffffffffffffffffffffffffffff1602179055506080820151816004015550503373ffffffffffffffffffffffffffffffffffffffff16867fe3f88fe167451f472c418722ea77dde48968affc45335e63c3bc749e143672bd87878760405161080a93929190611770565b60405180910390a3505050505050565b606060008211801561083557506108316001610b29565b8211155b610874576040517f08c379a000000000000000000000000000000000000000000000000000000000815260040161086b90611750565b60405180910390fd5b60026000838152602001908152602001600020600501805480602002602001604051908101604052809291908181526020016000905b82821015610a9b57838290600052602060002090600502016040518060a00160405290816000820160009054906101000a900460ff1660038111156108f2576108f1610fb8565b5b600381111561090457610903610fb8565b5b815260200160018201805461091890611410565b80601f016020809104026020016040519081016040528092919081815260200182805461094490611410565b80156109915780601f1061096657610100808354040283529160200191610991565b820191906000526020600020905b81548152906001019060200180831161097457829003601f168201915b505050505081526020016002820180546109aa90611410565b80601f01602080910402602001604051908101604052809291908181526020018280546109d690611410565b8015610a235780601f106109f857610100808354040283529160200191610a23565b820191906000526020600020905b815481529060010190602001808311610a0657829003601f168201915b505050505081526020016003820160009054906101000a900473ffffffffffffffffffffffffffffffffffffffff1673ffffffffffffffffffffffffffffffffffffffff1673ffffffffffffffffffffffffffffffffffffffff168152602001600482015481525050815260200190600101906108aa565b505050509050919050565b610aae610b4d565b600073ffffffffffffffffffffffffffffffffffffffff168173ffffffffffffffffffffffffffffffffffffffff1603610b1d576040517f08c379a0000000000000000000000000000000000000000000000000000000008152600401610b1490611827565b60405180910390fd5b610b2681610bcb565b50565b600081600001549050919050565b6001816000016000828254019250508190555050565b610b55610c8f565b73ffffffffffffffffffffffffffffffffffffffff16610b736105cb565b73ffffffffffffffffffffffffffffffffffffffff1614610bc9576040517f08c379a0000000000000000000000000000000000000000000000000000000008152600401610bc090611893565b60405180910390fd5b565b60008060009054906101000a900473ffffffffffffffffffffffffffffffffffffffff169050816000806101000a81548173ffffffffffffffffffffffffffffffffffffffff021916908373ffffffffffffffffffffffffffffffffffffffff1602179055508173ffffffffffffffffffffffffffffffffffffffff168173ffffffffffffffffffffffffffffffffffffffff167f8be0079c531659141344cd1fd0a4f28419497f9722a3daafe3b4186f6b6457e060405160405180910390a35050565b600033905090565b6000819050919050565b610caa81610c97565b82525050565b6000602082019050610cc56000830184610ca1565b92915050565b6000604051905090565b600080fd5b600080fd5b600080fd5b600080fd5b6000601f19601f8301169050919050565b7f4e487b7100000000000000000000000000000000000000000000000000000000600052604160045260246000fd5b610d3282610ce9565b810181811067ffffffffffffffff82111715610d5157610d50610cfa565b5b80604052505050565b6000610d64610ccb565b9050610d708282610d29565b919050565b600067ffffffffffffffff821115610d9057610d8f610cfa565b5b610d9982610ce9565b9050602081019050919050565b82818337600083830152505050565b6000610dc8610dc384610d75565b610d5a565b905082815260208101848484011115610de457610de3610ce4565b5b610def848285610da6565b509392505050565b600082601f830112610e0c57610e0b610cdf565b5b8135610e1c848260208601610db5565b91505092915050565b610e2e81610c97565b8114610e3957600080fd5b50565b600081359050610e4b81610e25565b92915050565b60008060008060808587031215610e6b57610e6a610cd5565b5b600085013567ffffffffffffffff811115610e8957610e88610cda565b5b610e9587828801610df7565b945050602085013567ffffffffffffffff811115610eb657610eb5610cda565b5b610ec287828801610df7565b9350506040610ed387828801610e3c565b925050606085013567ffffffffffffffff811115610ef457610ef3610cda565b5b610f0087828801610df7565b91505092959194509250565b600060208284031215610f2257610f21610cd5565b5b6000610f3084828501610e3c565b91505092915050565b600081519050919050565b600082825260208201905092915050565b60005b83811015610f73578082015181840152602081019050610f58565b60008484015250505050565b6000610f8a82610f39565b610f948185610f44565b9350610fa4818560208601610f55565b610fad81610ce9565b840191505092915050565b7f4e487b7100000000000000000000000000000000000000000000000000000000600052602160045260246000fd5b60048110610ff857610ff7610fb8565b5b50565b600081905061100982610fe7565b919050565b600061101982610ffb565b9050919050565b6110298161100e565b82525050565b600060a0820190506110446000830188610ca1565b81810360208301526110568187610f7f565b9050818103604083015261106a8186610f7f565b90506110796060830185610ca1565b6110866080830184611020565b9695505050505050565b600073ffffffffffffffffffffffffffffffffffffffff82169050919050565b60006110bb82611090565b9050919050565b6110cb816110b0565b82525050565b60006020820190506110e660008301846110c2565b92915050565b600481106110f957600080fd5b50565b60008135905061110b816110ec565b92915050565b6000806000806080858703121561112b5761112a610cd5565b5b600061113987828801610e3c565b945050602061114a878288016110fc565b935050604085013567ffffffffffffffff81111561116b5761116a610cda565b5b61117787828801610df7565b925050606085013567ffffffffffffffff81111561119857611197610cda565b5b6111a487828801610df7565b91505092959194509250565b600081519050919050565b600082825260208201905092915050565b6000819050602082019050919050565b6111e58161100e565b82525050565b600082825260208201905092915050565b600061120782610f39565b61121181856111eb565b9350611221818560208601610f55565b61122a81610ce9565b840191505092915050565b61123e816110b0565b82525050565b61124d81610c97565b82525050565b600060a08301600083015161126b60008601826111dc565b506020830151848203602086015261128382826111fc565b9150506040830151848203604086015261129d82826111fc565b91505060608301516112b26060860182611235565b5060808301516112c56080860182611244565b508091505092915050565b60006112dc8383611253565b905092915050565b6000602082019050919050565b60006112fc826111b0565b61130681856111bb565b935083602082028501611318856111cc565b8060005b85811015611354578484038952815161133585826112d0565b9450611340836112e4565b925060208a0199505060018101905061131c565b50829750879550505050505092915050565b6000602082019050818103600083015261138081846112f1565b905092915050565b611391816110b0565b811461139c57600080fd5b50565b6000813590506113ae81611388565b92915050565b6000602082840312156113ca576113c9610cd5565b5b60006113d88482850161139f565b91505092915050565b7f4e487b7100000000000000000000000000000000000000000000000000000000600052602260045260246000fd5b6000600282049050600182168061142857607f821691505b60208210810361143b5761143a6113e1565b5b50919050565b60008190508160005260206000209050919050565b60006020601f8301049050919050565b600082821b905092915050565b6000600883026114a37fffffffffffffffffffffffffffffffffffffffffffffffffffffffffffffffff82611466565b6114ad8683611466565b95508019841693508086168417925050509392505050565b6000819050919050565b60006114ea6114e56114e084610c97565b6114c5565b610c97565b9050919050565b6000819050919050565b611504836114cf565b611518611510826114f1565b848454611473565b825550505050565b600090565b61152d611520565b6115388184846114fb565b505050565b5b8181101561155c57611551600082611525565b60018101905061153e565b5050565b601f8211156115a15761157281611441565b61157b84611456565b8101602085101561158a578190505b61159e61159685611456565b83018261153d565b50505b505050565b600082821c905092915050565b60006115c4600019846008026115a6565b1980831691505092915050565b60006115dd83836115b3565b9150826002028217905092915050565b6115f682610f39565b67ffffffffffffffff81111561160f5761160e610cfa565b5b6116198254611410565b611624828285611560565b600060209050601f8311600181146116575760008415611645578287015190505b61164f85826115d1565b8655506116b7565b601f19841661166586611441565b60005b8281101561168d57848901518255600182019150602085019450602081019050611668565b868310156116aa57848901516116a6601f8916826115b3565b8355505b6001600288020188555050505b505050505050565b600060608201905081810360008301526116d98186610f7f565b905081810360208301526116ed8185610f7f565b90506116fc6040830184610ca1565b949350505050565b7f496e76616c696420494400000000000000000000000000000000000000000000600082015250565b600061173a600a83610f44565b915061174582611704565b602082019050919050565b600060208201905081810360008301526117698161172d565b9050919050565b60006060820190506117856000830186611020565b81810360208301526117978185610f7f565b905081810360408301526117ab8184610f7f565b9050949350505050565b7f4f776e61626c653a206e6577206f776e657220697320746865207a65726f206160008201527f6464726573730000000000000000000000000000000000000000000000000000602082015250565b6000611811602683610f44565b915061181c826117b5565b604082019050919050565b6000602082019050818103600083015261184081611804565b9050919050565b7f4f776e61626c653a2063616c6c6572206973206e6f7420746865206f776e6572600082015250565b600061187d602083610f44565b915061188882611847565b602082019050919050565b600060208201905081810360008301526118ac81611870565b905091905056fea264697066735822122002e030b5914faebe7009494493b0cdfb7ef3aa8a87bbafed2889f843599da93d64736f6c63430008130033",
  "linkReferences": {},
  "deployedLinkReferences": {}
}